:1040000000800010C54000006141000063410000D5
:104010006F41000079410000834100000000000072
:104020000000000000000000000000008D410000C2
:104030008F4100000000000091410000D9470000BE
:1040400095410000498D0000954100009541000018
:104050009541000095410000954100009541000008
:1040600095410000395C0000954100009541000039
:1040700095410000954100009541000095410000E8
:1040800095410000954100009541000095410000D8
:1040900095410000F5650000954100009541000044
:1040A0000D8B0000954100009541000095410000F6
:1040B00095410000954100009541000095410000A8
:1040C00095410000004800474D9D0100EFF3098035
:1040D0000046704780F30988704700BFEFF30880FF
:1040E0000046704780F30888704700BFEFF31280E6
:1040F000704700BF80F31188704700BFEFF3108056
:10410000704700BF80F31088704700BFEFF3138043
:10411000704700BF80F31388704700BFEFF314802F
:10412000704700BF80F31488704700BF00BA704723
:1041300040BA7047C0BA704790FAA0F0704700BF0D
:1041400050E8000F704700BF41E80000704700BF13
:104150000020416800688546084772B605F0F4FB08
:10416000FEE76846211CF0B405F01EFCFEE7684639
:10417000F0B405F039FDFEE76846F0B405F0A4FCA4
:10418000FEE76846F0B405F0BFFDFEE7FEE7FEE798
:10419000FEE7FEE7FEE700001F2815D920380323BD
:1041A00013FA00F211FA00F04FF44043C4F20F0387
:1041B000D3F8AC1121EA0201C3F8AC11D3F8AC2159
:1041C0001043C3F8AC017047032313FA00F2814097
:1041D0004FF4404CC4F20F0CDCF8A80120EA0203B3
:1041E000CCF8A831DCF8A82141EA0200CCF8A801FB
:1041F000704700BF4FF440431F28C4F20F0392BF23
:10420000D3F8A831D3F8AC31203833FA00F000F0FD
:10421000030070474FF440421F28C4F20F0292BFC0
:10422000D2F8A821D2F8AC21203832FA00F040F2BE
:104230000403C1F2000300F003001B6818B9042056
:10424000B3FBF0F070470228FAD90328F7D1082011
:10425000B3FBF0F0704700BF012911D079B94FF4DA
:104260004042C4F20F02D2F8C4304FF2DE7CCEF6E8
:10427000EF7C03EA0C0121EA0003C2F8C430704766
:104280004FF44042C4F20F024FF2DE7CD2F8C41069
:10429000CEF6EF7C00EA0C0040EA0103C2F8C4301D
:1042A000704700BF4FF44043C4F20F030022C3F82D
:1042B000C02030BF704700BF4FF46D404FF4404303
:1042C000CEF20000C4F20F03042108220161C3F8FA
:1042D000C02030BF704700BF4FF46D404FF44043E3
:1042E000CEF20000C4F20F03042109220161C3F8D9
:1042F000C02030BF704700BF4FF46D404FF44043C3
:10430000CEF20000C4F20F03042103220161C3F8BE
:10431000C02030BF704700BF2DE9F00F4FF440467A
:10432000C4F2020633684FF4404523F0F00800223F
:10433000C4F2000548F05007072440F2040137603A
:10434000C1F200012C722A726A602A6208689046E3
:10435000030982B04FF4613C4BF2C5304CF2FF11BF
:1043600001931A46C3460123CDF80080C9F2A2107A
:104370006446C0F20101B2FBF3F5A0FB056704FB44
:1043800005F95E1E7F0C894506F0030640F2508158
:10439000013795FBF7F5A5F56135002DB8BF6D42E6
:1043A000654506DA4FF00009B8469B46CDF8009007
:1043B000AC46002D00F0DA8001259D4280F2D680C7
:1043C000002E5DD0AE423CD0022E1DD005EB03097D
:1043D000B2FBF9F6A0FB06A704FB06F97F0C8945A2
:1043E00040F22A81013796FBF7FAAAF56136002ED2
:1043F000B8BF7642664503DAB8469B460095B44698
:10440000002E00F0B3800135EE18B2FBF6F6A0FBEB
:10441000069704FB06F97F0C894540F211810137AC
:1044200096FBF7F6A6F56136002EB8BF76426645D4
:1044300003DAB8469B460095B446002E00F09680FD
:10444000013505EB0309B2FBF9F6A0FB06A704FB57
:1044500006F97F0C894540F2F780013796FBF7FAA1
:10446000AAF56136002EB8BF7642664503DAB84633
:104470009B460095B446002E78D001359D4275DAF2
:1044800005EB0309B2FBF9F6A0FB069704FB06F95E
:104490007F0C894540F29980013796FBF7F6A6F527
:1044A0006136002EB8BF76426645BFBFB8469B4610
:1044B0000095B446002E59D0013505EB030AB2FB36
:1044C000FAF6A0FB06A704FB06F97F0C894540F22B
:1044D0008C80013796FBF7F6A6F56136002EB8BF43
:1044E0007642664503DAB8469B460095B446002EF0
:1044F0003CD005F1010909EB030AB2FBFAF6A0FB77
:1045000006A704FB06FA7F0C8A457ED9013796FB85
:10451000F7F6A6F56136002EB8BF7642664504DA96
:10452000B8469B46CDF80090B446FEB105F10209AD
:1045300009EB030AB2FBFAF6A0FB06A704FB06FA96
:104540007F0C8A4571D9013796FBF7F6A6F56136DF
:10455000002EB8BF7642664504DAB8469B46CDF8D1
:104560000090B44616B103359D4289DB0133019DAD
:10457000102B2A447FF4FFAE4FF44040C4F20000F9
:10458000017BC8F3072741F0800C5FFA88F880F8B8
:104590000CC0077180F80080037B009F03F07F014F
:1045A00047EA0B1201735FFA82FC0323012180F8B2
:1045B00028C00373017290F8302042F0800C80F81C
:1045C00030C002B0BDE8F00F7047002F7FF465AF38
:1045D000013505EB030AB2FBFAF6A0FB06A704FBC4
:1045E00006F97F0C89453FF674AF002F7FF472AF58
:1045F00005F1010909EB030AB2FBFAF6A0FB06A7D5
:1046000004FB06FA7F0C8A4580D8002F7FF47FAF29
:1046100005F1020909EB030AB2FBFAF6A0FB06A7B3
:1046200004FB06FA7F0C8A458DD8002F9BD08BE7C0
:10463000002F3FF4C1AEACE6002F3FF4E4AED2E66B
:10464000002F3FF4FDAEEBE6002F3FF416AF05E779
:1046500071B14FF440424118C4F20002137D13F0CF
:10466000200FFBD010F801CB884282F800C0F5D1B2
:10467000704700BF10B5044615F06AFA68B14FF4F0
:1046800040422118C4F20002137D13F0200FFBD02A
:1046900014F8010B8C421070F6D110BD0FB410B598
:1046A00096B018AC54F8042B4E2101A8234615945B
:1046B00004F09CFB4E2823D8012832DC16AC04EB16
:1046C000000E01AA0D23541C0A214FF440420EF89B
:1046D000543C01AB0EF8531C2018591EC4F20002C2
:1046E00092F814C01CF0200FFAD011F801EF8142AB
:1046F00082F800E0F4D116B0BDE8104004B0704775
:104700004D234E2016A9CA1812F8543C002BD5D1BF
:10471000841E01EB040C1CF8541C0A2908BF204617
:10472000CCE7431EEEE700BF0FB410B596B018AC4F
:1047300054F8042B502101A82346159404F056FB8D
:10474000502817D94F2001AB4FF44042591E18187A
:10475000C4F2000292F814C01CF0200FFAD011F835
:1047600001EF814282F800E0F4D116B0BDE81040BC
:1047700004B070470028F8D00138E4E7F0B400290D
:1047800082B025DD49F6AC564FF4404201AB00251E
:10479000C0F201065F1CC4F20002435D01AC4FEAA7
:1047A000131C03F00F0316F80CC0F35C013C8DF8EA
:1047B00004C08DF8053092F814C01CF0200FFAD018
:1047C00014F8013FBC421370F5D101358D42E4D19C
:1047D00002B0F0BC704700BF70B540F2D434C1F2F3
:1047E000000423684CF6CD4C5A1C22602368CCF69A
:1047F000CC4CACFB0301C80800EB8004B3EB4404D1
:104800001CD140F2D033C1F20003196844F6D352F0
:10481000481C18601968C1F26202A2FB01054FF43E
:10482000FA706D0900FB151149B11B68A2FB031258
:10483000520900FB123CBCF5E17F05D070BD0120A0
:10484000BDE8704000F09EBB05F0EEFA0328F5D1FC
:104850002046BDE8704000F095BB00BF40F2F85321
:10486000C1F2000349F68C601968C0F20100FFF73D
:1048700015BF00BF2DE9F04149F6C05540F2803424
:10488000C0F2010540F2D036C1F200046F68C1F2F7
:104890000006206833683A189A4272D3D5F814801B
:1048A0006168306808EB010C49F6C05340F280376C
:1048B0008445C0F20103C1F20007C0F0A080D5F822
:1048C0002480A168326808EB010C49F6C05340F21D
:1048D00080379445C0F20103C1F20007C0F0868022
:1048E000D5F83480E168306808EB010C49F6C05314
:1048F00040F280378445C0F20103C1F200076CD357
:10490000D5F844802169326808EB010C49F6C053A0
:1049100040F280379445C0F20103C1F2000753D33F
:10492000D5F854806169306808EB010C49F6C05332
:1049300040F280378445C0F20103C1F200073AD348
:10494000D5F86480A169326808EB010C49F6C053C0
:1049500040F280379445C0F20103C1F2000721D331
:10496000E1696D6F306805EB010C49F6C05340F208
:1049700080348445C0F20103C1F2000409D3BDE8CC
:10498000F0812A6890472168CF19276000F0E6FC83
:1049900084E71A6F9047E3695D19E561BDE8F0416E
:1049A00000F0DCBC1A6E9047B86900EB0803BB61ED
:1049B00000F0D4FCD4E7186D80477A6902EB080355
:1049C0007B6100F0CBFCBBE71A6C9047386900EBC9
:1049D00008033B6100F0C2FCA2E7186B8047FA684D
:1049E00002EB0803FB6000F0B9FC89E71A6A904704
:1049F000B86800EB0803BB6000F0B0FC70E7186912
:104A000080477A6802EB08037B6000F0A7FC56E75A
:104A10002DE9804883B072B64FF4404A402448F2F2
:104A2000DE40C4F20F0A0025C0F21004CEF2A870D6
:104A30004FF46D46CAF8A841CEF20006CAF8AC5150
:104A4000CAF8C40000F01AFBFFF766FC716A49F669
:104A5000946041F4E0237362C0F20100FFF764FE4A
:104A600049F6A860C0F20100FFF75EFE49F6BC609F
:104A7000C0F20100FFF758FE49F6D0604BF6243132
:104A8000C0F20100C0F20101FFF74EFE49F6E060FE
:104A9000DAF88011C0F20100FFF746FE0F22CAF8D3
:104AA000802100F07FF949F6EC60C0F20100FFF7C9
:104AB0003BFE00F0B7FA012000F064FA49F60070FE
:104AC000C0F20100FFF730FE40F204090EF0F4FFDF
:104AD00049F60870C0F20100C1F20009FFF724FE98
:104AE00005F002FAD9F8007042F21078B7FBF8F43A
:104AF00024F07F414EF2100340F2D034CEF2000396
:104B0000481EF822C1F200042560586086F8232070
:104B1000F13A9D601A6000F001F949F61070C0F298
:104B20000100FFF7BBFD40F2803600F009FC49F6BA
:104B3000C053C0F20103C1F20006D96822681033E5
:104B40008F1877510435202DF7D162B600204BF62F
:104B5000B0784BF6D87B05F09FF9C0F2010B47F215
:104B60003050C0F20108C8EB0B0500F0FFFD40F229
:104B7000C47B1E2040F280370EF0FCFF4FEAE509AF
:104B80000195C1F2000BC1F2000700F0E7FB019BA9
:104B9000072B34DD09F1FF3CD8F8000001250CF0AB
:104BA000030A80474D452ADABAF1000F13D0BAF153
:104BB000010F0AD0BAF1020F03D0D8F808008047DD
:104BC000022558F835309847013558F83520013519
:104BD00090474D4513DA58F8352005F1010A904702
:104BE00058F83A0005F1020A804758F83A309847D9
:104BF000E91C58F83120043590474D45EBDB35680A
:104C00002168FA358D42C0F081807268206802F513
:104C10007A7E864571D3B268206802F59C530833CA
:104C2000834260D3F268206802F56A4360338342AE
:104C30004FD33369206803F5FA7C844540D371690A
:104C400020686431814233D3B269256802F57A7AEB
:104C5000AA4524D3F569236864359D4217D3DBF850
:104C60000010002991D049F62870C0F2010043F6E7
:104C7000FC764FF2AD04FFF711FDC2F208060020EA
:104C800064F31F4400F034FF346072B6FEE701F0B5
:104C900007FDFA696432FA6100F060FBDFE712F0A9
:104CA000CDFEB86900F57A71B96100F057FBD1E724
:104CB0000AF0A2F87B6964337B6100F04FFBC3E725
:104CC0000EF0F2FC3D6905F5FA723A6100F046FB20
:104CD000B5E70EF009FCF96801F56A456035FD603D
:104CE00000F03CFBA5E70CF05BFBB96801F59C55B7
:104CF0000835BD6000F032FB94E70BF06FFA79687D
:104D000001F57A757D6000F029FB84E707F0EAF988
:104D10003B68FA333B6000F021FB76E749F64060E0
:104D200070B5C0F20100FFF7FFFC4BF648454BF6AB
:104D30008040C0F20105C0F20100461BF6100024BD
:104D400006E05968FFF7AAFC55F83430984701345B
:104D500049F66060B44205EBC403C0F20100F0DB29
:104D600049F66860C0F20100FFF7DEFC4BF6D8752B
:104D70004CF20002C0F20105C0F20102511BCE103C
:104D8000002406E05968FFF789FC55F83400804795
:104D9000013449F66060B44205EBC403C0F201007F
:104DA000F0DB70BD4FF4404CC4F2020CDCF84C3028
:104DB0004CF2200223F04041CCF84C10DCF85000BB
:104DC000C2F2090220F4401343F40011CCF8501051
:104DD00010684FF0004140F000434CF24000136077
:104DE000C2F20900D161436913F4806305D147F22F
:104DF0006E52C1F200021370704747F26E5C0120E0
:104E0000C1F2000C8CF80000116821F00040106025
:104E1000704700BF00221146C4F2030210B40846D6
:104E20000B4614461843D36813F0020FFBD0013130
:104E30000829A06007D0080380B20529CCBF4FF431
:104E400000630023EEE70021C4F20301CA680023D7
:104E500012F0020FC4F20303F8D047F26E5CC1F205
:104E6000000C9CF800004AF20201996038B94FF436
:104E70004043C2F209030122DA6110BC70474CF2D0
:104E80004001C2F209012020C861F6E770B44FF476
:104E90004046C4F202063168002521F44F2242F454
:104EA0000A20C4F20305306000214F2302240426A7
:104EB0002B602A466C6008460B462C462E61184330
:104EC000D36813F0020FFBD001310829A06007D08E
:104ED0000B0398B20529CCBF4FF400630023EEE723
:104EE0000021C4F20301C868002310F0020FC4F2CD
:104EF0000303F8D047F26E5CC1F2000C9CF800206E
:104F00004AF202019960002A34D14FF44043C2F2C0
:104F100009030120D8610021C4F20301C8680023FD
:104F200010F0020FC4F20303F8D048F20C029A60AA
:104F3000D968002211F0020FC4F20302F8D04CF23B
:104F4000400CC2F2090C4FF4404140239160CCF870
:104F50001C30DCF80000802240F04001CCF800104A
:104F6000CCF81C20DCF8003043F08000CCF80000C6
:104F700070BC70474CF24001C2F209012022CA61A4
:104F8000C9E700BF47F26E51C1F200010B7843B987
:104F900080B14CF22000C2F209004FF00052826151
:104FA000704780B94FF44041C2F209014FF48000CC
:104FB000C86170474CF2200CC2F2090C4FF000514E
:104FC000CCF81C1070474FF44043C2F209034FF471
:104FD00080029A61704700BF47F26E51C1F2000132
:104FE0000B783BB970B14FF44040C2F20900012286
:104FF0008261704770B94CF24001C2F20901202071
:10500000C86170474FF4404CC2F2090C0121CCF842
:105010001C1070474CF24003C2F2090320229A612F
:10502000704700BF47F26E50C1F20000037893B1A1
:105030004FF44042C2F2090211684CF2400C41F4B4
:1050400080001060C2F2090CDCF8003043F020014F
:10505000CCF8001070474CF22000C2F20900026840
:105060004FF4404C42F000530360C2F2090CDCF8EC
:10507000001041F00102CCF8002070474FF440428C
:105080003023C4F20F0230B4C2F8A0314CF24F33D7
:1050900016E0D2F8A001013B10F0400F194614D1E0
:1050A000D2F8A001013B10F0400F0ED1D2F8A001C0
:1050B0008B1E10F0400F08D1CB1EB3F1FF3F09D07B
:1050C000D2F8A01111F0400FE3D01BB94FF0FF3020
:1050D00030BC704704224FF4404C2F25C4F20F0C13
:1050E00062F31F4544F23A03CCF80030AA24CCF80E
:1050F00004215520CCF884500125CCF88C404CF28A
:105100004F33CCF88C006246CCF88050CCF88C4001
:10511000CCF88C0016E0D2F88800013B10F0806FCC
:10512000194614D1D2F88800013B10F0806F0ED1DF
:10513000D2F888008B1E10F0806F08D1CB1EB3F11F
:10514000FF3F06D0D2F8881011F0806FE3D0002B1B
:10515000BCD04FF4404CC4F20F0C01220320CCF819
:105160000C21CCF88000A730CCF88C00553813F017
:1051700003016246CCF88C0015D0DCF88800013BB6
:1051800010F0407F2BD101290DD0022905D0DCF889
:105190008810013B11F0407F21D1D2F88800013BFB
:1051A00010F0407F1BD1013BB3F1FF3F194616D0F1
:1051B000D2F8880010F0407F11D1D2F88800013B6E
:1051C00010F0407F0BD1D2F888008B1E10F0407F8A
:1051D00005D1D2F88800CB1E10F0407FE3D0002B21
:1051E0003FF474AF4FF4404C40F204034FF4584185
:1051F000C4F20F0C0024C1F20003C0F2B85109221E
:10520000CCF808212046CCF8C841196060E700BFFF
:105210004FF44046C4F202063368002223F44F20C4
:10522000C4F2030240F40A244F2102253460002313
:10523000116055606D1910461C46194616461561D9
:105240002143C56815F0020FFBD00133082BB16074
:1052500007D01A0394B2052BCCBF4FF40061002194
:10526000EEE7083BC4F20303DE68002116F0020FEC
:10527000C4F20301F8D047F26E5CC1F2000C9CF856
:1052800000204AF202048C60002A50D14FF4404EB4
:10529000C2F2090E0121CEF81C100021C4F2030154
:1052A000CD68002315F0020FC4F20303F8D048F2D2
:1052B0000C069E60DC68002114F0020FC4F20301AA
:1052C000F8D04FF440404CF240058860C2F2090526
:1052D0004021E9612C68802344F040062E60EB6198
:1052E000286840F08001296042B32E68002346F40C
:1052F00080722A6040F2E7364FF480744FF08042AB
:10530000AA205521B3420FDDAC614FF47A731072BD
:10531000117200BF00BF00BF00BF043BF9D1B34210
:10532000EC6110721172EFDC00BF0133EAE74CF25E
:105330004003C2F209032020D861AEE7FEE700BFB8
:105340004FF462514FF08043C0F2010103204FF04F
:105350000042596018701A61704700BF4FF08043D7
:10536000AA20552218721A72704700BF2DE9F04F1B
:1053700040F65C03C1F20003186887B010F001002A
:105380007FD147F244514FF4805B4FF4A0464FF475
:1053900000574FF4804C814680464FF44053C1F291
:1053A000000140F2D452C1F2000292F8205092F86B
:1053B0002140013505F00F05013422F8153004F0C5
:1053C0000F0432F814A00023C4F2030382F8205023
:1053D00082F82140C3F808A0CD69CA68A944904466
:1053E0004FEA28144FEA291504F5006105F500621B
:1053F0004FEA01584FEA02594FEA18584FEA195933
:1054000048F4E04449F4C04540F2FC529C60C1F2CB
:1054100000029D6092F8201092F821504C1C04F07C
:105420000F04691C22F814C001F00F0C32F81C5054
:1054300082F8204082F821C09D6092F8424092F8A4
:105440004310651C05F00F054C1C04F00F0402EB23
:1054500045014F8402EB440CBCF8227040F2DC3171
:1054600082F8425082F84340C1F200019F609E6082
:10547000C3F808B098600B68581C086007B0BDE816
:10548000F08F01A80FF0FEFB47F24451C1F200017A
:10549000BDF906B0BDF908A00D680E690BFB0AF056
:1054A00005FB0BF806FB0BF94C684A6904FB0A8CF8
:1054B00002FB0A9500F5FE43FF3330EA200028BFC7
:1054C00018468F688E69C01307FB00C806FB005999
:1054D000BDF80E3008F5FE4409F5FE42BDF80AB0ED
:1054E000BDF80C70BDF81060BDF812A0FF34FF329B
:1054F000BDF8145018094FEA1B1C38EA280828BFC9
:10550000A04639EA290928BF91463F0936094FEAE2
:105510001A1B40F440534FEAE8384FEAE9394CF49B
:10552000804C47F4005746F4A0464BF4805B2809B2
:1055300037E700BF30B490F820400023024690F8CF
:1055400021C022F8023B10340232CCEB0405438028
:10555000E91722F8023B22F8023B090F22F8023B2E
:105560006C1822F8023B04F00F0422F8023B611A87
:105570001D46138080F8201080F8213030BC704721
:105580002DE9F04F40F2E834C1F2000423684FF4F3
:10559000004B4CF2400E23F001054020C4F2010BF9
:1055A000C2F2090E02274FF44048CBF80470C4F24F
:1055B00002082560CEF81C00D8F8106085B026F4EB
:1055C0004072C8F81020FFF725FCD8F8101040F200
:1055D000FC5241F4807340F2D451C8F81030C1F24B
:1055E0000002C1F2000192F8429091F8207092F806
:1055F000430091F8213092F820C007F1100B09F117
:105600001006C0EB0609C3EB0B000CF1100AC7171C
:105610004FEAE97C3F0F4FEA1C7C92F8215001973A
:1056200000EB070BE144276809F00F09C5EB0A0AF4
:10563000CDF80C9047F002074FEAEA782760039F05
:10564000002316464FEA18780D4646F8043B45F805
:10565000043BCCEB070CC244019F0436043540F2F6
:10566000DC300AF00F0A0BF00F0BC1F2000046F815
:10567000043B45F8043BC8EB0A0AC7EB0B0B03726B
:1056800003605360336082F820A082F82130538495
:105690009384D384138553859385D385138682F8A9
:1056A00042C0994682F843304B602B6081F820B0AD
:1056B00081F8213005B0BDE8F08F00BF40F2F03333
:1056C00040F2D830C1F20003C1F20000196802684C
:1056D00070B591422BD040F2F435C1F200054FF481
:1056E000546455F82120C0F20304A24220DC002AB1
:1056F0002DDD40F20405C1F200052C684FF4004C8A
:10570000A608B6FBF2F040F2EC340131C4F2010C11
:10571000461EC1F200047729C8BF00212125CCF81C
:105720001800CCF84460CCF850502260196070BD6D
:1057300049F6AC7049F6CC7149F6D873C0F2010055
:10574000C0F201015322C0F20103FEF706FD49F643
:10575000AC7049F6CC7149F6F473C0F20100C0F2A6
:1057600001015422C0F20103FEF7F7FC4FF454622A
:10577000C0F20302904210B503461DDC00282ADD6A
:1057800040F2040CC1F2000CDCF800104FF4004CA5
:105790008A08B2FBF0F0C4F2010C441E40F2EC3176
:1057A000CCF81800C1F20001CCF844402124CCF818
:1057B000504000200B6010BD49F6AC7049F6CC712A
:1057C00049F6D873C0F20100C0F201015322C0F2C1
:1057D0000103FEF7C2FC49F6AC7049F6CC7149F6FC
:1057E000F473C0F20100C0F201015422C0F20103BF
:1057F000FEF7B3FC38B540F2DC34C1F20004257A80
:10580000012D1FD140F2EC30C1F20000036813B348
:105810004AF24C00C0F20100FEF740FF47F274501C
:10582000C1F2000003784FF4004CC4F2010C0221D5
:105830000922217263722846CCF80420FFF7CCFBC2
:10584000002038BD4AF20C00C0F20100FEF726FF2E
:105850004FF0FF3038BD4AF23000C0F20100FEF7D1
:105860001DFF4FF0FF3038BD40F2DC31C1F20001C6
:1058700038B50B7A3BB340F2D83340F2F032C1F284
:105880000002C1F2000311681A68511A48BF78314A
:10589000762921DC48F6890C511CC8F6880C8CFB53
:1058A0000145CC1705EB010CC4EBAC15C5EB051598
:1058B00040F2F434C1F20004A1EBC50144F8220027
:1058C0001960002038BD4AF25C00C0F20100FEF70A
:1058D000E5FE4FF0FF3038BD4AF27000C0F2010023
:1058E000FEF7DCFE4FF0FF3038BD00BF40F2DC3386
:1058F000C1F20003197ADA8851B19888824204DC37
:105900004AB9C0F5E06007307047013A101A704795
:105910004FF0FF307047C0F5E160704740F2DC3275
:10592000C1F2000291884CF20003C2F20703C1EBFE
:10593000C10003EB4000704740F2DC33C1F20003CA
:105940001A7A511ECAB2012A11D899884BF2C5326F
:105950004018C9F2A21282FB001CC1170CEB000216
:10596000C1EBA2214FF4E16C0CFB11009880704751
:10597000B0B140F2D4530D4AC1F20003012814BF64
:105980001846104690F8201090F8210010310A1A9D
:10599000D317190F02EB010C0CF00F00401A7047DF
:1059A00040F2FC50C1F20000ECE700BF1E06001000
:1059B000F0B4002862D040F2D453374AC1F2000359
:1059C000012814BF1846104600295DDB0F29A8BF27
:1059D0000F2172B690F8203090F8216003F1100585
:1059E000AD1BEA17120FAC1804F00F0CC2EB0C043D
:1059F0000C1B002C4ADB30F813103CD00133012281
:105A0000651E03F00F03A24220F8131005F00305F2
:105A10002FD0BDB1012D0DD0022D05D05A1C02F0A2
:105A20000F0320F813100222013303F00F0320F8B4
:105A3000131001320133013203F00F03A24220F8A8
:105A4000131016D05F1C07F00F077E1C06F00F0620
:105A5000751C05F00F056B1C043203F00F03A24206
:105A600020F8171020F8161020F8151020F8131041
:105A7000E8D180F8203062B6F0BC704740F2FC50AC
:105A80000029C1F20000A1DA0021A2E7311B01F0D8
:105A90000F0480F82140EEE71E06001038B540F2F2
:105AA000DC34C1F20004237A13B14FF0FF3038BD6B
:105AB00004F0BAF9C8B940F2E83CC1F2000CDCF8D5
:105AC000005040F2D83E40F2F032C1F2000EC1F276
:105AD000000225F00E050121A080E080CEF8000034
:105AE0001060CCF80050217238BD4FF0FF3038BD47
:105AF0002DE9F04F40F2E834C1F2000421684FF480
:105B0000004B4CF2400E21F001070223C4F2010BBE
:105B1000C2F2090E40254FF44048CBF80430C4F2DD
:105B200002082760CEF81C50D8F8106085B026F423
:105B300040720290C8F81020FFF76CF9D8F81010E6
:105B400040F2FC5241F48073C8F81030C1F20002F8
:105B500092F820C040F2D451C1F2000192F82150D5
:105B600092F8429091F820700CF1100A92F84300DC
:105B700091F82130C5EB0A0A07F1100B09F1100664
:105B80004FEAEA78C0EB06094FEA1878C3EB0B003E
:105B9000C717C2443F0F0AF00F0A009700EB070B2C
:105BA000CDF804A02768DDF808A04FEAE97C4FEAA9
:105BB0001C7C4AEA0707E14409F00F092760019FAE
:105BC000CDF80C90C8EB070A039F002316460D463C
:105BD00046F8043B45F8043BCCEB070C009F043629
:105BE000043540F2DC300BF00F0BC1F2000046F838
:105BF000043B45F8043BC7EB0B0B03720360536097
:105C0000336082F820A082F8213053849384D384B7
:105C10001385538593859946D385138682F842C0B0
:105C200082F843304B602B6081F820B081F821303E
:105C300005B0BDE8F08F00BF40F2DC33C1F20003D5
:105C4000597A4FF400420120C4F2010202292DE9E1
:105C5000F041106000F0EC801C7A022C40F0E680ED
:105C6000DC88B3F804C0A44500F0D880651CB5F505
:105C7000E16FB4BFA8B200204CF20005E700C2F209
:105C800007053E1B05EB46061968B2890131083647
:105C900012F4004FD880196040F0C48040F2D45113
:105CA000C1F2000191F8203091F8210012055E1C2C
:105CB000130D06F00F06421C43F4405321F8163032
:105CC00002F00F0031F810C00022C4F20302C4EB4E
:105CD000070847F24453C1F2000381F8206081F8BD
:105CE0002100C2F808C005EB480135F918001C680E
:105CF000B1F902801D6900FB08FC05FB00F704FBFD
:105D000000F55E695C6806FB08770CF5FE4004FB55
:105D10000858FF309C699D683CEA2C0C28BF8446DB
:105D20004FEAEC3004FB007705FB008507F5FE46E3
:105D300005F5FE44D3F81CC0FF36DB68FF3435EAB6
:105D4000250528BF254637EA270728BF37460CEB2D
:105D5000E73703EBE53005113B1105F5006403F56A
:105D6000006620053705050D3B0D45F4E04443F47E
:105D7000C046946040F2FC539660C1F20003B1F853
:105D800006C0888893F8207093F8214040EA0C40C0
:105D9000C0F30B367D1C05F00F0546F48047013437
:105DA00023F8157004F00F0C33F81C6083F82050B2
:105DB00083F821C0966093F8427093F843507E1C9C
:105DC000040506F00F066F1C240D07F00F0544F4C0
:105DD000005C03EB4607A7F822C003EB4504648C84
:105DE00083F8426083F843509460B1F80AC00B898D
:105DF000000C43EA0C4303F0F00100F47F4C4CEA42
:105E000001000109C3F30B2C41F4A0401B0D4CF41D
:105E10008051906091609360BDE8F081BDE8F041F1
:105E2000FFF7AEBBFFF74AFCB28837E700F07EF819
:105E3000BDE8F041FFF79ABA40F2DC33C1F200034B
:105E4000187A704740F2DC31C1F200018888CB88B3
:105E5000C01A48BF00F5E160704700BF48B172B694
:105E600040F2DC30C1F20000037A022B14D062B69B
:105E7000704772B64CF24000C2F20900402340F273
:105E8000E83CC361C1F2000CDCF8001021F0010213
:105E9000CCF8002062B670474CF24000C2F2090014
:105EA000402340F2E83C8361C1F2000CDCF80010B2
:105EB00041F00102CCF8002062B670478A89B1F83F
:105EC00006C04FF6F07370B402EA03040D890CEAC1
:105ED0000306240444EA062C4CEA15144E88250CCB
:105EE00006808E888480C580B1F80EC00D8A0CEAC9
:105EF0000304240505EA030C44EA0C1302F0F00C39
:105F000043EA0C02130C43810281B1F800C04A89B4
:105F10000CF4704141EA12134680838170BC7047D3
:105F200040F2DC33C1F200031868704749F688700C
:105F300008B5C0F20100FEF710F900BF2DE9F041ED
:105F4000402001214FF44046FEF786F9C4F20206D4
:105F500000210C20FEF720F9FEF798FF37694CF27C
:105F6000400047F480743461C2F2090005684FF4C0
:105F7000004145F0100CC0F800C0C4F201014FF020
:105F8000100C4FF0030EC0F81CC04FF46147C1F86D
:105F900004E040F2FC54C1F814E040F2DC324FF46B
:105FA000005E40F2EC3640F2D455C1F84CE00023DC
:105FB000C1F20004C1F20002C1F200054FF4007109
:105FC000CEF20007C1F2000687F809332046396097
:105FD00013721360336084F8213084F8203084F821
:105FE000433084F8423085F8213085F82030FFF7BF
:105FF000A1FA04F12200FFF79DFA2846BDE8F0411E
:10600000FFF798BA00224FF0A043C3F8E42F1146DF
:106010004FF0804043F2FF02C3F8E82FFEF71CB9AF
:1060200008B5102000F030FD4FF6FF73984202D102
:106030004FF0FF3008BD10F0010FF9D010F0100F35
:1060400038D010F0040F38D04FF0A043596841F019
:1060500001025A60D3F8001141F48062C3F80021B4
:1060600015229A6010F0020F02BF4FF480724FF0B9
:10607000A0439A6104D000204FF0A04CCCF8180047
:106080004FF0A04E262188234FF6FF70CEF8001265
:10609000CEF8E43FCEF8E80FDEF80021002042F011
:1060A0000301CEF80011DEF8003043F00102CEF813
:1060B000002008BD4FF0FF3008BD12224FF0A04372
:1060C0009A60CFE72DE9F04140F2A068C1F20008E4
:1060D0004FF0A043D3F82C61D8F80040A64211D06D
:1060E00040F24065C1F20005002755F8240004F095
:1060F0004BFA601C45F82470182814BF044600248D
:10610000A642F2D1C8F80040BDE8F0812DE9F04187
:106110000C4600296DD00B4600251B680135002B6D
:10612000FBD1172D67DC4FF0A04CDCF82801DCF820
:106130002C114A1E131A48BF18339D423EDC4FF003
:10614000A045D5F828518CB342F2702740F2406642
:106150004AF6AB28C2F20807C1F20006C2F6AA2826
:10616000618922684B1E002A0CBF4FF0804C4FF013
:10617000000C61684CEA030040F0004207EBC50EDA
:106180002046CEF89420CEF8901004F02DFA6B1C27
:1061900088FB032C46F82540DA17C2EBAC012468D3
:1061A00001EB4100A3EBC005002CD9D14FF0A0407A
:1061B000C0F82851002040B2BDE8F0814AF2141026
:1061C000C0F20100FEF76AFA00214FF0A040D0F8BB
:1061D0002831D0F82C210131013AD31A48BF1833A5
:1061E0009D42F4DC4AF23C10C0F20100FEF756FA80
:1061F000A5E70D4697E74AF2F00029461722C0F2BC
:106200000100FEF74BFA204604F0BEF9FB20D2E76E
:106210002DE9F04140F2A068C1F200084FF0A04320
:10622000D3F82C61D8F80050AE4211D040F240644F
:10623000C1F20004002754F8250004F0A5F9681CF9
:1062400044F82570182814BF05460025AE42F2D147
:1062500040F2A464C8F80050C1F200044FF0A04519
:10626000D5F814212568511B48BF0C3109B9BDE888
:10627000F08142F27026C2F2080606EBC50EDEF887
:10628000B01156F825604805430D591C304604F0FE
:10629000F9F84AF6AB2C681CC2F6AA2C8CFB00213C
:1062A000C217C2EB610303EB430CA0EB8C05304635
:1062B0002560BDE8F04100F0C3B900BF2DE9F0470B
:1062C00040F2A466C1F200064FF0A043D3F8184193
:1062D0003568A54236D042F270274AF6AB28C2F2A2
:1062E0000807C2F6AA2815E088FB03CAB0F80A908E
:1062F000D0F804C0C1EB6A0E09F1FF390EEB4E0174
:10630000C2F830C0C2F8349047F82400A3EB8104EF
:10631000A54217D003204FF4BE61024604F00EF8E8
:10632000631CD91707EBC4020028DDD14FF0A04051
:10633000D0F814314AF25010C0F2010021462A462A
:10634000FEF7ACF94FF0A042C2F818413560BDE845
:10635000F08700BF08B54FF44043C4F202039868C9
:1063600020F0030C4CF001029A60996821F00C0EA9
:106370004EF0040098609A6822F4407C4CF48071DE
:106380009960986820F4403E4EF480329A60996893
:1063900021F4402C4CF4802098609A6822F4401E2E
:1063A0004EF480119960986820F0405C4CF0805267
:1063B0009A60996821F0404040F080429A6005E080
:1063C0004AF28810C0F20100FEF768F900F056F8B2
:1063D0000028F5D008BD00BF70B50646022000F0C9
:1063E00053FB0446032000F04FFB05464AF29000A1
:1063F000C0F2010021462A46FEF750F94FF6F07030
:1064000005EA000345F6904243EA0444C2F2000262
:10641000944223D1042E2ED8DFE806F003090F148E
:106420001A0000204FF4405100F0A8FA1FE00020AD
:106430004FF4807100F0A2FA19E00020014600F04C
:106440009DFA14E000204FF4045100F097FA0EE09A
:1064500000204FF4005100F091FA08E04AF29C004D
:10646000C0F20100FEF71AF94FF0FF3070BDFFF7E0
:10647000D7FD002070BD4FF0FF3070BD2DE9F04119
:106480004FF080400121FDF7E7FE4FF44F444FF0FD
:10649000A0431C607824C3F80041763C1C602E3475
:1064A0005C604FF4BE645C6143F20F741C611224A3
:1064B000DC604FF41074C3F8004100224FF4006414
:1064C0009C6110464FF400419A6100F057FA4AF27D
:1064D000AC00C0F20100FEF727F94FF400340020B1
:1064E00000F0D2FA10F4084F0BD044B94AF2B800C9
:1064F000C0F20100FEF718F92046BDE8F081013C2A
:10650000EDD11720212100F039FA0020FFF764FFB8
:10651000002868DB40F20808C1F2000898F805403E
:1065200098F804304FF0A04543EA04262E6498F80A
:1065300003E098F802C02D4E4CEA0E226A6498F8E7
:10654000007098F80110002447EA0120A86406F1C1
:10655000340703204FF4BE61024603F0EFFE244DE2
:1065600080463B1940B94AF2C400C0F20100FEF770
:1065700095F84046BDE8F0814168428939510834B8
:10658000501E602C586046F8048FE2D105F1600877
:106590000021C02205F59077404613F00FF905F56C
:1065A000C07600212246384613F008F922463046CC
:1065B000002113F003F94FF0A04C1723CCF81C81F5
:1065C0000022CCF82071CCF824310C3BCCF80851D7
:1065D0000120CCF80C61CCF81031CCF82821CCF893
:1065E0001821BDE8F0810020BDE8F0816C22082070
:1065F000A022082008B548F28003C4F202039A687A
:1066000012F4807F15D04FF48070D860122000F013
:106610003BFA102000F038FA10F0010F08D12020CA
:1066200003F00EFC47F26F53C1F200030221197010
:1066300008BD4AF2C010C0F20100FDF78EFD00BF98
:1066400010B542680446117B92F80DC041EA0C2255
:10665000130A43EA022189B240F2DB53994211D96D
:1066600040F60603994211D048F2DD6C614509D02D
:10667000B1F5006F0AD04AF2D410C0F20100FEF763
:106680000DF82046BDE8104003F07EBF40F20C71CB
:106690002046C1F20001BDE810400BF055BC00BF20
:1066A00010B547F26F54C1F200042378012B22D0B9
:1066B000022B21D0FFF7B4FC00281CDB202003F0C4
:1066C000DBFB4AF2F8100121C0F201002170FDF756
:1066D000E5FF40F20C70C1F2000003F007FE40F24B
:1066E0000C7040F2A861C1F20000C1F20001BDE8E7
:1066F00010400CF091BC10BD4AF2E410C0F2010051
:10670000FDF7CCFF40F20C70C1F200000DF036F83E
:1067100040F20C70C1F2000003F0F8FD002323707A
:1067200010BD00BF08B50249062212F04FFF08BD98
:1067300037070010F0B546F20D1340F20C74C1F2A9
:106740000004C0F20003A3616523062784F83230F9
:1067500041F29D66093340F2080187B040F2DC5EE9
:1067600000253A46C1F2000184F83330C0F2010638
:106770003C3B04F12B0084F83130A4F828E066613A
:1067800005950495039584F82A7012F01FFF47F2CF
:106790006F52C1F200021570FFF7DCFD11200321DA
:1067A00000F0ECF81220202100F0E8F848F2800C0C
:1067B000C4F2020CDCF814604FF46143CEF2000323
:1067C00046F4807108204FF4001241F64976CCF867
:1067D0001410C0F2010683F8150305A91A602046BB
:1067E00004AA03AB0095019603F080FB204603F05A
:1067F00077FD07B0F0BD00BF10B4B9B147F26E54D9
:10680000C1F200042378C1F12002904083B14CF220
:10681000800311F0010FC2F209034FF080544FF0D2
:1068200000524ED100283BDBDC613AE010BC7047DF
:106830004CF2400311F0010FC2F209034FF400744F
:106840004FF4807214D1002801DBDC6100E09C6110
:1068500000BF00BF00BF00BF9A6100BF00BF00BF04
:1068600000BFDA6100BF00BF00BF00BF01394000B8
:106870000028B4BF9C61DC6100BF00BF00BF00BF47
:106880009A6100BF00BF00BF00BFDA6100BF00BF58
:1068900000BF00BF0139C9D04000D8D4DC61D7E7C0
:1068A0009C6100BF00BF00BF00BF9A6100BF00BF76
:1068B00000BF00BFDA6100BF00BF00BF00BF0139E9
:1068C00040000028ACBFDC619C6100BF00BF00BF7E
:1068D00000BF9A6100BF00BF00BF00BFDA6100BF08
:1068E00000BF00BF00BF0139A0D04000D8D4DC6198
:1068F000D7E700BF47F26E53C1F200031B78DBB944
:106900004CF24002C2F20902116821F400704FF407
:1069100080711060916100BF00BF00BF00BFFBB974
:106920004CF24003C2F209034FF48070D86100BFFB
:1069300000BF00BF00BF70474CF2800CC2F2090CD0
:10694000DCF800104FF0005021F08052CCF800200D
:10695000CCF8180000BF00BF00BF00BF002BDFD085
:106960004CF2800CC2F2090C4FF00052CCF81C2003
:1069700000BF00BF00BF00BF704700BF70B5064634
:106980000D4672B647F26E54C1F200042378002B14
:106990006CD04CF2800CC2F2090CDCF8002042F002
:1069A0000053CCF80030DCF8001041F08050CCF8F7
:1069B00000004FF0FF302021FFF71EFF05200421CB
:1069C000FFF71AFF05210120FFF716FF30460521CA
:1069D000FFF712FF02200146FFF70EFF28461021A5
:1069E000FFF70AFF2378FBB94CF2400EC2F2090E02
:1069F000DEF800204FF4807022F40071CEF8001011
:106A0000CEF8180000BF00BF00BF00BF03BB4CF2B0
:106A10004003C2F209034FF48070D86100BF00BF89
:106A200000BF00BF62B670BD4CF2800CC2F2090C10
:106A3000DCF800204FF0005022F08051CCF800101C
:106A4000CCF8180000BF00BF00BF00BF002BDED095
:106A50004CF2800EC2F2090E4FF00051CEF81C101D
:106A600000BF00BF00BF00BF62B670BD4CF2400067
:106A7000C2F20900026842F480730360016841F4C5
:106A80000072026095E700BFF8B5054672B647F29E
:106A90006E54C1F20004237843B94CF24000C2F2B4
:106AA0000900016841F40072026007E04CF28007BF
:106AB000C2F209073B6843F080563E604FF0FF305A
:106AC0002021FFF799FE06200421FFF795FE0521FE
:106AD0000120FFF791FE28460521FFF78DFEFFF705
:106AE00009FF4CF280004CF2400122781023002470
:106AF000C2F209004FF00056C2F209014FF480754E
:106B000064000AB98D6100E0866100BF00BF00BF6C
:106B100000BF2AB9CD614F6917F4007F05D106E0A7
:106B2000C661476917F0805F01D044F00104013B62
:106B3000E6D1FFF7DFFE62B62046F8BDF0B547F2BA
:106B40006E50C1F20000037885B0002B00F0C880C1
:106B500040F2040EC1F2000EDEF8007042F6635CF3
:106B6000BC09C0F23E5CACFB04264FF44044C4F2C6
:106B70000504B109642540224FF440462161C4F266
:106B800002066161A56122603068082540F00F03AC
:106B90003360B76E202247F00301B166A56121463C
:106BA000226008684FF4404310F0080FC4F2050358
:106BB000F7D020269E61196811F0200F18BF9E6142
:106BC0004FF44043C4F20503A02508229D601946F6
:106BD0009A610C684FF4404314F0080FC4F20503A7
:106BE000F7D01F6817F0200F7FD14FF4404CC4F24C
:106BF000050CFA230822CCF808306146CCF818209E
:106C00000D684FF4404315F0080FC4F20503F7D0A8
:106C100008212026996119461E600C684FF44043F4
:106C200014F0080FC4F20503F7D020229A611D6802
:106C30004FF4404E15F0200F18BF9A61C4F2050EB4
:106C4000A1200827CEF808007246CEF81870136805
:106C500013F0080FFBD026484FF44041C4F2050161
:106C6000471D042608250C460E608D610A684FF406
:106C7000404312F0080FC4F20503F7D0A26800F8F1
:106C8000012FB842F0D10C269E6119684FF44042A2
:106C900011F0080FC4F20502F7D0956840F2080021
:106CA000C1F200004571146814F0200F1AD14FF49E
:106CB000404CC4F2050C10260822CCF80060CCF839
:106CC0001820017842788378C678057944794AF2A9
:106CD0003020C0F20100009601950294FDF7DEFC21
:106CE00005B0F0BD20239361E1E7202098617CE7A7
:106CF0000700001047F26E50C1F20000037843B164
:106D00004CF2200CC2F2090C4FF00070CCF81800C5
:106D100070474FF44041C2F209014FF480028A618A
:106D2000704700BF4FF40041C4F20801FF238B609D
:106D3000CA684FF4004312F0100FC4F20803F7D1F1
:106D40009868C0B2704700BF4FF40043C4F2080314
:106D500070B544F62164FF261D469E60DA6812F085
:106D6000100FFBD1AA68D2B2FF2A04D1013CF4D1A2
:106D70006FF0010070BDFE2A02D06FF0010070BDFF
:106D800041F0006C4FF4824244F22014C5F200043A
:106D900041F41045C5F200024CF41043D560606028
:106DA000E36072B6136943F001001061236943F098
:106DB0000100206162B6322303FB01F313F00301EB
:106DC000204619D01469013B14F0010F03D1046966
:106DD00014F0010F38D001290ED041B91169013BDF
:106DE00011F0010F03D1016911F0010F2CD01169CD
:106DF000013B11F0010F23D0013BB3F1FF3F1946D6
:106E000022D0146914F0010F03D1046914F0010FAA
:106E10001AD014694B1E14F0010F03D1046914F049
:106E2000010F11D014698B1E14F0010F03D10469F6
:106E300014F0010F08D01469CB1E14F0010FDBD140
:106E4000016911F0010FD7D1E3B14FF40041C4F251
:106E50000801FF228A60C8684FF4004310F0100F49
:106E6000C4F20803F7D19A68FF2219469A60CB68EA
:106E70004FF4004213F01003C4F20802F7D19268F5
:106E8000184670BD4AF26820C0F20100FDF7F2FB1F
:106E9000DBE700BF10F0800F70B504460D4640F0F0
:106EA000D28047F26E50C1F200000378002B00F050
:106EB000A9804CF2200CC2F2090C4FF00076CCF8FD
:106EC0001860CCF81C604FF40041C4F20801FF23A5
:106ED0008B60C8684FF4004310F0100FC4F2080331
:106EE000F7D11A464AF220119B68C0F20701FF262B
:106EF00010469660D36813F0100FFBD183685FFAD9
:106F000083FCBCF1FF0F01D00139F2D14FF40041F5
:106F1000C4F20801FF228A60C8684FF4004310F0F1
:106F2000100FC4F20803F7D19A6819469C60CA682A
:106F30004FF4004312F0100FC4F20803F7D1280EEB
:106F4000996819469860CA684FF4004312F0100F10
:106F5000C4F20803F7D1C5F3074099681946986051
:106F6000CA684FF4004312F0100FC4F20803F7D1BF
:106F7000C5F30720996819469860CA684FF4004322
:106F800012F0100FC4F20803F7D1EDB29A68194657
:106F90009D60CB684FF4004213F01003C4F2080266
:106FA000F7D1402C916836D0482C18BF93603ED062
:106FB000D1684FF4004311F0100FC4F20803F7D169
:106FC0004C2C9A680AD1FF229A60DC684FF4004288
:106FD00014F0100FC4F20802F7D193684FF4004286
:106FE000C4F208020A21FF2514469560D36813F005
:106FF000100FFBD1A068C0B210F0800F01D0013992
:10700000F3D170BD4FF44041C2F209014FF4800248
:107010008A61CA6157E795249460D1684FF40043B0
:1070200011F0100FC4F20803F7D19B68D6E7872050
:107030009060D5684FF4004315F0100FC4F20803B8
:10704000F7D19B68CAE777200021FFF723FF0128CB
:10705000D7D804F07F0424E74FF40043C4F20803B8
:1070600030B49960DC684FF4004214F01004C4F2AC
:107070000802F7D1FD29936808BF204601D130BC32
:1070800070470F23136000F5FF74D16811F0020FF1
:10709000FBD0017890F801C0A0424CEA0123936034
:1070A00001D00230F1E74FF40041C4F20801CA6890
:1070B0004FF4004312F0100FC4F20803F7D1D86860
:1070C00010F0040F04D09A68D86810F0040FFAD1B9
:1070D0004FF40043C4F208030721FF221960194648
:1070E0009A60C8684FF4004310F0100FC4F2080310
:1070F000F7D19A68FF2219469A60C8684FF4004396
:1071000010F0100FC4F20803F7D19A68FF22194655
:107110009A60C8684FF4004310F0100FC4F20803DF
:10712000F7D1996801F01F02052A02D04FF0FF3015
:10713000A5E7FA329A60DD684FF4004015F0100FB1
:10714000C4F20800F7D14AF2201183680246C0F267
:107150000701FF2504469560D36813F01003FBD1A7
:10716000A0685FFA80FCBCF1FF0F04D00139F2D1B6
:107170004FF0FF3083E7184681E700BF4FF400412E
:10718000C4F20801FF2330B48B60CA684FF4004397
:1071900012F0100FC4F20803F7D11A464AF2201178
:1071A0009B68C0F20701FF2514469560D06810F077
:1071B0001003FBD1A0685FFA80FCBCF1FF0F04D084
:1071C0000139F2D14FF0FF3000E0184630BC704773
:1071D000F0B50021044685B07A20FFF75BFE002859
:1071E00040F0B6804FF40043C4F2080304F10B02F0
:1071F000FF271E469F60D96811F01001FBD1B568CA
:107200000130042802F8015FF4D14A20FFF742FE62
:107210000546002840F09C80102104F11000FFF783
:1072200093FD0028C0F2948049202946FFF732FEE2
:10723000002840F08D80102104F12000FFF784FD2C
:107240000028C0F2858094F820008309012B00F00B
:10725000A08094F8273094F825C094F8262094F85C
:107260002A5094F8286099000CF00F0E94F829C069
:107270000EEBD51301EB961002F003018A02DD1F1D
:1072800001300CF0030E821805EB4E0112FA01F3E7
:1072900063605A0247F270552260C1F200052878F7
:1072A00010F0040131D0CD200021FFF7F3FD0028BC
:1072B0004ED14FF40042C4F20802FF259560D16818
:1072C0004FF4004511F0100FC4F20805F7D110215A
:1072D0006846AB68FFF738FD002839DB3026FF2110
:1072E0002A46A960EB6813F0100FFBD1013EF6B2FD
:1072F0009368002EF5D19DF80A301021180911FA73
:1073000000F23046A26005B0F0BD4920FFF7C2FD93
:107310000646E8B910216846FFF716FD002817DB7E
:1073200095F800E01EF0020340D09DF80B309DF868
:107330000D009DF80AE0D9094A1C0EF03F0C8309A4
:10734000581E02EB4C0111FA00F23046A260DAE757
:1073500047F26E5CC1F2000C9CF80030002B36D076
:107360004CF22000C2F209004FF0007282614FF42B
:107370000041C4F20801FF238B60CA684FF4004348
:1073800012F0100FC4F20803F7D19B684FF0FF30E2
:10739000B9E794F8283094F829001902451C05EB48
:1073A000010C1FFA8CF29302636072E794F82B00D1
:1073B00094F82A104209013201F0030002EBC00CDC
:1073C000C1F3840E0EFB0CC21846A2609BE74FF47B
:1073D000404EC2F2090E4FF48001CEF81810C6E7F5
:1073E000F8B547F27054C1F200042378154613F043
:1073F000080F08BF4902012A044654D05220FFF763
:1074000049FD002854D1002D56DD6E1E16F00307ED
:1074100022D020464FF40071FFF796FC031E49DB93
:10742000351E49DD012F04F5007415D0022F09D057
:1074300020464FF40071FFF787FC031E3ADB013D45
:1074400004F5007420464FF40071FFF77DFC031E25
:1074500030DB013D04F500744FF400712046FFF766
:1074600073FC04F500766A1E031E4FF4007130466B
:1074700020DB002A20DDFFF767FC4FF40071031EBC
:1074800006EB010016DBFFF75FFC031E4FF40071F3
:1074900004F5C0600EDBFFF757FC031E0ADB043D5A
:1074A00004F50064D8E75120FFF7F4FC00282FD042
:1074B0004FF0FF331846F8BD00214C20FFF7EAFCDF
:1074C00047F26E51C1F200010878C0B14CF2200EB3
:1074D000C2F2090E4FF00070CEF818004FF40041D0
:1074E000C4F20801FF238B60C8684FF4004210F01B
:1074F0001003C4F20802F7D192681846F8BD4FF4A1
:10750000404CC2F2090C4FF48002CCF81820E5E799
:1075100020464FF40071FFF717FC0028B4BF4FF06E
:10752000FF330023C6E700BFF8B547F27053C1F23E
:1075300000031B780D4613F0080F08BF4D02012A07
:107540000446164660D013F0060F40F08A8059209A
:107550002946FFF79FFC00285CD1002E5DDD3546F3
:10756000013E16F003071FD0FC212046FFF774FDF3
:10757000002846DB351E50DD012F04F5007413D0C2
:10758000022F08D0FC212046FFF766FD002838DBDB
:10759000013D04F50074FC212046FFF75DFD002845
:1075A0002FDB013D04F50074FC212046FFF754FD5C
:1075B00004F50076FC216B1E0028304621DB002BF1
:1075C0002BDDFFF749FDFC21002804F5806018DB66
:1075D000FFF742FDFC21002804F5C06011DBFFF736
:1075E0003BFD00280DDB04F50064FC212046FFF77D
:1075F00033FD043D04F50076FC216B1E0028304667
:10760000DDDA4FF0FF30F8BD58202946FFF742FC85
:10761000002834D04FF0FF30F8BD0020FD21FFF7E7
:107620001BFD0028EFDB47F26E51C1F20001087824
:10763000E0B14CF2200EC2F2090E4FF00070CEF80D
:1076400018004FF40042C4F20802FF239360D1688F
:107650004FF4004311F01000C4F20803F7D19B6807
:10766000F8BDD7201146FFF715FC70E74FF4404CEA
:10767000C2F2090C4FF48002CCF81820E1E7204652
:10768000FE21FFF7E9FC0028B4BF4FF0FF300020D7
:10769000F8BD00BF10B500210446CD20FFF7FAFB6E
:1076A000002832D14FF40041C4F20801FF238B605F
:1076B000CA684FF4004312F0100FC4F20803F7D168
:1076C000402120469B68FFF73FFB00281FDB47F265
:1076D0006E51C1F200010878D0B94FF4404CC2F2AB
:1076E000090C4FF48002CCF818204FF40042C4F289
:1076F0000802FF239360D1684FF4004311F010009B
:10770000C4F20803F7D19B6810BD4FF0FF3010BDE5
:107710004CF2200EC2F2090E4FF00070CEF81800A5
:10772000E3E700BF40F20401C1F200010B68B3FBC4
:10773000F0F3012B08DDFE2B00DDFE234FF40042A9
:10774000C4F20802136170474FF400420223C4F2EE
:1077500008021361704700BF70B547F26E54C1F262
:107760000004237882B043B94FF44040C2F20900CC
:10777000016841F48002026009E04CF2200CC2F280
:10778000090CDCF8003043F00075CCF80050FFF72E
:10779000B1FA24784FF44043C4F2020384B9196863
:1077A00021F0404018601A6842F000441C605D6897
:1077B00025F03C015960586840F028025A6005E005
:1077C000DC6844F4703E4EF44075DD604FF4404C8C
:1077D000C4F20F0CDCF8AC31072223F44065CCF87E
:1077E000AC51DCF8AC014FF40044C4F2080440F49E
:1077F0008061531F4FF4D450CCF8AC11C0F2060096
:1078000022606360FFF78EFFE26812F0100FFBD179
:1078100001E09A6803E04FF40043C4F20803DC6817
:1078200014F0040FF5D14FF48041C5F2000101209E
:1078300008630D6B4FF4804315F0010FC5F2000390
:10784000F7D04AF27820196BC0F20100FCF726FF4E
:107850004FF4824344F2201CC5F20003C5F2000C31
:1078600000254FF4006241F202014FF400441A6116
:10787000C4F20804CCF810109D60CCF80850606A7F
:1078800040F2100248F20801C4F2080140F003057A
:10789000C1F2000265621A6014245960CCF800102D
:1078A000FFF740FA013CFBD140202146FFF7F2FAF6
:1078B000012874D147304FF4D571FFF7EBFA012856
:1078C0006DD1FFF72FFA0DF1040C0CF80400013410
:1078D000042CF6D19DF806E0BEF1010F29D19DF8E8
:1078E0000730AA2B25D14CF25034013CE920B4F1E9
:1078F000FF3F4FF0804105D0FFF7CCFA0028F4D1CC
:10790000002C4CD07A200021FFF7C4FA002846D181
:107910000446FFF707FA01AD28550134042CF8D1CD
:107920009DF8041001F0400000280CBF04250C2530
:107930001DE0E9200021FFF7ADFA01288CBF0125E9
:1079400002258CBF4126E9264CF25034013C00212F
:10795000B4F1FF3F304604D0FFF79CFA0028F5D180
:10796000ECB150204FF40071FFF794FAB8B947F228
:107970007052C1F200021570FFF7BCF9FFF7D2F99F
:107980004FF43450C0F23110FFF7CCFE40F2447097
:10799000C1F2000002B0BDE87040FFF719BC4FF023
:1079A000FF3002B070BD00BF00F00F0CC20910B56F
:1079B000012342EA4C0413FA04F240F2787C600896
:1079C000C1F2000C4FF440444CF82010C5F2000402
:1079D000D4F834120A43C4F83422D4F8040240F034
:1079E0000403C4F8043210BD40F2B871C1F20001C2
:1079F0004FF440430860C5F20003D3F8040240F09E
:107A00000802C3F80422704740F27471C1F2000109
:107A10004FF440430860C5F20003D3F8040240F07D
:107A20000102C3F80422704708B500EBD07240F29F
:107A30007873C1F20003521053F8223033B1C0F30F
:107A4000430C4CEAC01000F08F00984708BD00BFFF
:107A50002DE9F0414FF44043C5F20003D3F8004252
:107A600014F0010F0DD040F27475C1F200052A68C0
:107A70000121C3F8081222B1F52000F063FB2B6846
:107A8000984714F0080F40F0A68014F0040F00F09F
:107A9000A0804FF440440425C5F2000440F27877FA
:107AA000C4F8085201260025C1F2000719E001358B
:107AB00016FA05F3D4F830120B4234D105F101085F
:107AC00006FA08F3D4F83022134249D105F102082E
:107AD00006FA08F3D4F830120B425FD10335202D9B
:107AE00075D016FA05F3D4F830221342DFD0C4F86B
:107AF0003832202000F014FB6A1057F82230D4F8F6
:107B00001412002BD3D002F00F0040EAC51801F088
:107B10001F01013508F08F00984716FA05F3D4F8D5
:107B200030120B42CAD0C4F83832202000F0F8FAE4
:107B30006A1057F82230D4F81412002BBED002F08D
:107B40000F0E4EEAC51C0CF08F0001F01F0105F16D
:107B50000108984706FA08F3D4F830221342B5D04A
:107B6000C4F83832202000F0DBFA4FEA680257F8F8
:107B70002230D4F81412002BA8D002F00F0040EAF3
:107B8000C81808F08F0001F01F0105F1020898479E
:107B900006FA08F3D4F830120B429FD0C4F83832FA
:107BA000202000F0BDFA4FEA680257F82230D4F8DE
:107BB0001412002B92D002F00F0E4EEAC81C0CF0EB
:107BC0008F0001F01F0103359847202D89D1BDE8B2
:107BD000F081BDE8F0814FF4404C0820C5F2000C64
:107BE000CCF80802FE2000F0ADFA10F01A0F3FF4B6
:107BF0004CAF40F2B87EC1F2000EDEF80030002B30
:107C00003FF443AF00F0150098473EE7704700BFD0
:107C100010B500F083FE47F63D7447F60D40C0F204
:107C20000004C0F20000FFF7DFFE00202146FFF74E
:107C3000BBFE80202146FFF7B7FE0020402100F068
:107C4000AFFA8020402100F0ABFA47F6ED4140F258
:107C5000BC720020C0F20001C1F20002BDE8104079
:107C600000F02EBA40F2C873C1F2000318607047EA
:107C700040F2C871C1F200010968F8B5002926D0A8
:107C80000C78060AC0B2002C1FD0002702E00919A8
:107C90000C784CB14D78B542F9D1B84206D00919EB
:107CA0000C780137002CF5D12046F8BD022E196062
:107CB00003D0097801201160F8BDCC7891F802C09A
:107CC00001204CEA04231360F8BD2046F8BD49F6B4
:107CD000AC704AF2C0214AF2DC23C0F20100C0F2CB
:107CE00001016C22C0F20103FCF737FAF0B5057808
:107CF00083B005F01F05012D044634D0022D1FD09E
:107D000015B1002003B0F0BD43781068092BF8D8F6
:107D100001A555F823F000BF077E0000157E000086
:107D2000037D0000157E0000037D0000397E000009
:107D3000437E0000037D00007B7E0000BD7D0000CF
:107D400046781768012E21D028D20079019100F0E1
:107D500019FB0022C0F3400C87F800C07A7001992B
:107D600001200D60CEE7437812684BB10A2B20D07A
:107D70000B2BC6D14388002BC3D10B602846C1E72B
:107D800013705370022328460B60BBE7418800291B
:107D9000B7D1007900F02AFB3046B3E7032EB0D10B
:107DA0004388002BADD10079012100F01FFB012099
:107DB000A8E70020107028460D60A3E740F2C871C4
:107DC000C1F200010D686788002D00F0A780FFB2A6
:107DD000002F00F0818029780B46002967D0FF2012
:107DE00006460AE0052A54D0022A01D16E790B46D4
:107DF000ED182B781946002B59D06A78042AF1D156
:107E0000E8780B46F4E70025022205704570012052
:107E10000A6077E763884FF2AD05AB427FF471AF3C
:107E2000B4F804C09C457FF46CAF40F2C4720120EA
:107E3000C1F20002106065E7A07800F0FFF90120B0
:107E400060E740F2C870C1F2000003686788002B49
:107E500055D018783D0AFFB200283FF453AF0026F2
:107E600004E01B18187800283FF44CAF5C78AC4253
:107E7000F7D1B74234D00136F3E747F27152C1F27D
:107E8000000292F800C0012580F800C028460D606D
:107E900038E7C6EB070CDCF1000E4EEB0C030028B4
:107EA00014BF002303F0010363B90B46A0E70120D0
:107EB00000F004FD608847F27153C1F200031870AE
:107EC00001201FE76A792979A87841EA022100F0A8
:107ED00067F92B7800208BE7384600F0EFFCE9E7E4
:107EE000022D136003D01B7801200B600AE7DA78BB
:107EF00093F802C001204CEA02230B6002E749F626
:107F0000AC704AF2C0214AF2DC23C0F20100C0F298
:107F100001016C22C0F20103FCF71FF949F6AC70B5
:107F20004AF2C0214AF2DC23C0F20100C0F2010192
:107F3000A322C0F20103FCF710F900BF2DE9F041C4
:107F4000002840D111F0040157D140F2F474C1F27D
:107F500000042268002A40F39F8040F2F875C1F2C5
:107F60000005296800F0D8FA0028C0F28F802A683E
:107F7000216813180A1A2B602260002A61D140F28E
:107F8000EC70C1F20000017840F2DC7340F2CC7C6E
:107F9000C1F3411EC1F20003C1F2000C53F82E20C0
:107FA0005CF82E302A60002B70D040F2FC71C1F2D8
:107FB00000012A469847002868D026688020402E75
:107FC000A8BF40260DE080286BD140F2F474C1F2C6
:107FD0000004266840F2F875402EA8BF4026C1F282
:107FE00000053246296800F037FA2B682268981994
:107FF000961B28602660BDE8F08140F2EC74C1F267
:1080000000042146082200F087FA207840F2DC764E
:10801000C0F34111C1F20006E38840F2F87556F84A
:10802000216040F2F47440F2FC72C1F20005C1F22A
:108030000004C1F200022E60236013601BB1C0096E
:1080400001D1BDE8F08140F2CC70C1F2000050F8DF
:108050002130DBB140F2EC7740F2FC76C1F2000750
:10806000C1F2000640F2F87238463146C1F2000211
:10807000984758B13668F988B142D6BF0E46266097
:108080002160402EA8BF40268020AAE78020012141
:10809000BDE8F04100F0AAB90A46BDE8F04100F0A1
:1080A0003BBA49F6AC704AF2F0214AF20C33C0F206
:1080B0000100C0F20101E422C0F20103FCF74DF817
:1080C000002810B50EDB03281BDC40F2CC7440F214
:1080D000DC73C1F20004C1F2000344F8201043F83D
:1080E000202010BD49F6AC704AF2F0214AF2143358
:1080F000C0F20100C0F20101F222C0F20103FCF75C
:108100002CF849F6AC704AF2F0214AF22033C0F262
:108110000100C0F20101F322C0F20103FCF71DF8D7
:108120004FF44043C5F20003D3F800124FF440422D
:1081300000EA01018142C5F20002F5D1C2F808024D
:10814000704700BF4FF440430004C5F200033021E4
:1081500040F4A062C3F808121946C3F81022D1F8FF
:1081600000224FF4404302F01002C5F20003002A3F
:10817000F5D040F40070C3F808221946C3F8100285
:10818000D1F800224FF4404302F02002C5F2000370
:10819000002AF5D0C3F80822D3F81432D8B27047B9
:1081A000C30900F00F0210B443EA420201249440D4
:1081B0004FF44043C5F20003D3F8440244EA000000
:1081C000C3F84402C3F848221846C3F84C12D0F84A
:1081D00000124FF4404301F48071C5F200030029FE
:1081E000F5D042F04000020442F4A0623020C3F80F
:1081F0000812C3F808021946C3F81022D1F8002269
:108200004FF4404302F01002C5F20003002AF5D0FB
:108210004FF48070C3F808221946C3F81002D1F851
:1082200000224FF4404302F01002C5F20003002A7E
:10823000F5D0C3F8082210BC704700BF4FF440438C
:108240004FF4A062C5F20003C0F2D0023021C3F89F
:10825000081240F08000C3F81022D3F800124FF447
:10826000404201F01001C5F200020029F5D00004DF
:1082700040F48073C2F808121146C2F81032D1F8E7
:1082800000224FF4404302F01002C5F20003002A1E
:10829000F5D0C3F80822704747F26E51C1F20001D1
:1082A0000B7843B9002838D14CF22003C2F20903FD
:1082B0004FF00071D9614FF4404C4FF4A062C5F209
:1082C000000C3021C0F2FE02CCF808126146CCF856
:1082D0001022D1F800224FF4404302F01002C5F200
:1082E0000003002AF5D0002814BF4FF4803C4FF063
:1082F000000C4CF48070C3F808221946C3F8100231
:10830000D1F800224FF4404302F01002C5F20003FE
:10831000002AF5D0C3F8082270474CF2200CC2F2B4
:10832000090C4FF00072CCF81820C4E74FF440431A
:108330004FF4A062C5F20003C0F2F3023021C3F88B
:108340000812C3F81022D3F800124FF4404201F093
:108350001001C5F200020029F5D0030443F4807037
:10836000C2F808121146C2F81002D1F800224FF4E8
:10837000404302F01002C5F20003002AF5D0C3F812
:1083800008227047C20900F00F0C42EA4C004FF47B
:1083900040430004C5F20003302140F4A062C3F85A
:1083A00008121946C3F81022D1F800224FF44043B6
:1083B00002F01002C5F20003002AF5D040F400706C
:1083C000C3F808221946C3F81002D1F800224FF46E
:1083D000404302F02002C5F20003002AF5D0C3F8A2
:1083E0000822D3F81432D8B2704700BFC20900F097
:1083F0000F0C42EA4C0343F0400002044FF44043A8
:10840000C5F2000342F4A0623020C3F80802C3F8AA
:108410001022D3F800024FF4404200F01000C5F2E1
:1084200000020028F5D0002914BF4FF48033002348
:1084300043F48071C2F808021046C2F81012D0F856
:1084400000224FF4404302F01002C5F20003002A5C
:10845000F5D0C3F808227047F0B400F00F04A5006F
:108460004FF44043C5F2000345F00205C3F828521B
:10847000C3F82422D3F82852C00915F0020F40EAAD
:10848000440013D08E7891F803C035040F784E78ED
:1084900045EA0C6444EA070C4CEA0625C3F81C5272
:1084A000D3F82842043114F0020FEBD105044FF445
:1084B0004043C5F2000345F4A06000243021C3F816
:1084C00028421D46C3F80812C3F81002D5F800026E
:1084D0004FF4404300F01001C5F200030029F5D02D
:1084E0004FF4A064C3F80812C0F2FA043021C3F8B4
:1084F00008121846C3F81042D0F800124FF4404357
:1085000001F01001C5F200030029F5D0C3F80812EC
:108510001046F0BC704700BF2DE9F00300F00F04D7
:10852000A5004FF44043C5F2000345F00105C3F830
:108530002852D3F8205215F4006FFAD015F4806F4A
:1085400008BF4FF0FF3000F0C780AB059D0D002D38
:1085500000F08C8000268F1B05F1FF394FF4404856
:1085600018BF012719F00309B4463346C5F20008C5
:1085700069D09642ACBF002307F00103D8F8186217
:10858000002B40F0AE800123360A99459C465AD014
:10859000B9F1020F0BD09342ACBF4FF0000907F0C6
:1085A0000109B9F1000F40F09A800133360A13F047
:1085B000030F08BFD8F818629342ACBF4FF0000C0D
:1085C00007F0010CBCF1000F00D0CE5401339C46E3
:1085D000360A38E0360A13F0030F01D1D8F81862D2
:1085E0009342ACBF4FF0000907F00109B9F1000F49
:1085F00000D0CE5403F1010C360A1CF0030F08BF63
:10860000D8F818629445ACBF4FF0000907F0010993
:10861000B9F1000F01D001F80C6003F1020C360A29
:108620001CF0030F08BFD8F818629445ACBF4FF098
:10863000000907F00109B9F1000F01D001F80C6041
:1086400003339C46360A1CF0030F08BFD8F81862A3
:108650009342ACBF4FF0000907F00109B9F1000FD8
:1086600001D001F80C600133AB42B3D1C00940EA3C
:1086700044024FF4404C1304C5F2000C002143F4B3
:10868000A0623020CCF82812CCF808026146CCF861
:108690001022D1F800224FF4404302F01002C5F23C
:1086A0000003002AF5D04FF4A060C3F80822C0F2FE
:1086B000F2003022C3F808221946C3F81002D1F89C
:1086C00000024FF4404300F01002C5F20003002AFC
:1086D000F5D0C3F808222846BDE8F0037047CE5411
:1086E00063E70E704FE700BF2DE9F00300F00F04C1
:1086F000A6004FF4404346F00105C5F20003C3F85D
:10870000285200BFD3F8206216F4006500F0D18033
:1087100016F4806500F0CD80B605B60D002E00F091
:108720008B800027B1EB070C06F1FF3918BF4FF023
:10873000010C19F00309B8463D4669D09742ACBF19
:1087400000250CF00105D3F81872002D40F0AF8021
:1087500001253F0AA945A8465AD0B9F1020F0BD00E
:108760009542ACBF4FF000090CF00109B9F1000FC0
:1087700040F09B8001353F0A15F0030F08BFD3F886
:1087800018729542ACBF4FF000090CF00109B9F125
:10879000000F00D04F550135A8463F0A38E03F0A88
:1087A00015F0030F01D1D3F818729542ACBF4FF00A
:1087B00000090CF00109B9F1000F00D04F5505F187
:1087C00001083F0A18F0030F08BFD3F8187290454C
:1087D000ACBF4FF000090CF00109B9F1000F01D056
:1087E00001F8087005F102083F0A18F0030F08BFEE
:1087F000D3F818729045ACBF4FF000090CF0010996
:10880000B9F1000F01D001F808700335A8463F0AFE
:1088100018F0030F08BFD3F818729542ACBF4FF0A1
:1088200000090CF00109B9F1000F02D0B94601F8B6
:1088300008700135B542B2D1C30943EA44010C04C2
:108840004FF44043C5F2000344F4A06400203022FA
:10885000C3F828021946C3F80822C3F81042D1F819
:1088600000224FF4404302F01002C5F20003002A38
:10887000F5D04FF4A060C3F80822C0F2F200302215
:10888000C3F808221946C3F81002D1F800024FF4C9
:10889000404300F01002C5F20003002AF5D0C3F8EF
:1088A00008223046BDE8F00370474F5562E70F706D
:1088B0004EE7C3F828524FF0FF30F3E74FF4404340
:1088C0004FF4A062C5F20003C0F2D8023021C3F811
:1088D0000812C3F81022D3F800124FF4404201F0FE
:1088E0001001C5F200020029F5D0002814BF4FF492
:1088F0008033002343F48070C2F808121146C2F896
:108900001002D1F800224FF4404302F01002C5F2E9
:108910000003002AF5D0C3F80822704747F26E50D2
:10892000C1F20000037810B4002B73D14CF2200187
:10893000C2F209014FF00073CB610C6844F0007281
:108940000A604FF44043C4F20203D8684FF4404138
:1089500020F04054DC60DA68C4F20F0142F00050AD
:10896000D8605C684FF4404C24F070525A605868EC
:10897000C5F2000C40F0A0545C60D1F8C420122372
:1089800042F00040C1F8C4006146CCF8F43FD1F891
:10899000F82F4FF4404302F0120CBCF1120FC5F255
:1089A0000003F4D100224FF0FF344FF4A060C3F86D
:1089B0000422C0F2F300C3F80842C3F82C22C3F823
:1089C0003422C3F83842C3F840223022C3F80822C8
:1089D0001946C3F81002D1F800024FF4404300F0EA
:1089E0001002C5F20003002AF5D0C3F808224FF4A4
:1089F00080721946C3F81022D1F800024FF44043A8
:108A000000F01002C5F20003002AF5D0C3F80822D6
:108A100010BC70474FF4404CC4F2020CDCF810401C
:108A200024F44021CCF81010DCF8102042F480200F
:108A3000CCF8100085E700BF704700BF0020FFF7AB
:108A400075BC00BF4AF23C3010B5C0F20100FFF720
:108A500009F948F6CD2140F64002C1F2000201209A
:108A6000C0F20001FFF72CFB81200021FEF79CFFE4
:108A700048F63D218220C0F20001FEF795FF48F63E
:108A8000BD21C0F200010520FEF78EFF48F6392017
:108A9000C0F20000FEF7B8FF2020FFF747FC4FF4BC
:108AA0006143CEF20003182083F818034FF0807260
:108AB00001201A60BDE81040FFF7EEBB40F6000150
:108AC000C1F200014022FFF727BD00BF38B543784F
:108AD0000C46212B11D0222B0DD0202B01D00020B1
:108AE00038BD072540F214001168C1F200002A4683
:108AF00010F06CFD2560012038BD40F21400C1F279
:108B000000000723106001200B6038BDFEF7A0BFF6
:108B1000EFF3108062B67047704700BF4FF480409B
:108B2000014610B48446032460F31F400B224FF427
:108B3000614361F31F414460CEF20003CA606CF3ED
:108B40001F4C18200222CCF8144083F801031A604D
:108B500010BC70472DE9F0414FF4804340F64804C3
:108B600063F31F43C1F2000421689D6820688142BD
:108B70001EBF4FF4804363F31F43996847F272535B
:108B8000C1F200031A780CBFC1EB0501C0EB010173
:108B9000032A42D8DFE802F07155024440F6500043
:108BA000C1F20000026802EB8206F71C36EA2606D4
:108BB00028BF3E46B1EBA60F07DD40F6580CC1F2C8
:108BC000000C0026891ACCF8006002EB4206F71C64
:108BD00036EA260628BF3E46B1EBA60F72DD40F608
:108BE0005803C1F200031E68052E57D902EBC208D4
:108BF00046F2676702EB4802C6F2666787FB018CA4
:108C000087FB0287C917D217C1EBEC01C2EBE7085B
:108C100001EB0802026001361E602560BDE8F081AC
:108C200040F6500240F6580C0220C1F20002C1F298
:108C3000000C187000231160CCF800302560BDE8EE
:108C4000F0814FF4804640F65007304640F6580217
:108C5000C1F2000766F31F4639604FF0000CB161A6
:108C600060F31F40C1F200020221C0F808C0197071
:108C7000C2F800C02560BDE8F0814FF48040844612
:108C8000012260F31F406CF31F4C4FF0FF311A704C
:108C90004260CCF818102560BDE8F08146F26767A5
:108CA000C6F2666702EBC20287FB018C87FB028774
:108CB000C917D217C1EBAC08C2EBA70C08EB0C012B
:108CC0000160A8E703214AF2CC30C0F2010019701C
:108CD000FBF7E4FCA1E700BF10B540F65403C1F276
:108CE00000031A6886B052B340F64C04C1F2000487
:108CF000216800221A6021BB0123236040F6500E38
:108D0000C1F2000EDEF800004FF4606CC0F2277C68
:108D10004AF2D4319CFBF0F2C0F2010101A800F04C
:108D2000BBFD4AF2D830C0F2010021680FF0E2FA30
:108D30004AF2E430C0F2010001A90FF0DDFB06B0F9
:108D400010BD2260DAE700BF10B54FF4804060F339
:108D50001F40036813F0010F41D04FF480430121FD
:108D600063F31F434FF4804C19606CF31F4C40F6C3
:108D70004802DCF81810C1F2000213684C42A3420A
:108D8000C4BFC1EB0303136040F65002C1F20002FE
:108D90001268A2EB820404EBD470B3EB600F1CDB0F
:108DA00002EBD270441060428342B8BF9B1803EBC1
:108DB000020C0CEBDC7401EBD170621040F6540C29
:108DC0004FF4804402EB600364F31F44C1F2000CD3
:108DD0000121A361CCF8001010BD0023E7E74AF29F
:108DE000F430C0F20100FBF7B8F900BF2DE9F00F35
:108DF0008AB004914CF6CD444AF23441049D03906C
:108E000007469B4600200DF11C09C0F20101CCF67B
:108E1000CC4413785BB1252B12D001320130002DE8
:108E2000F7D007F8013B1378013D002BF3D1002D5B
:108E300000F04F823B7001300AB0BDE8F00F704780
:108E400053780132302B04BF12F8013F4FF0010A72
:108E5000A3F13006F6B218BF4FF0000A092E18D859
:108E600002F1010C0026A84606EB860603EB460637
:108E70009CF800306246A3F1300C5FFA8CF5303E6E
:108E8000092D02F1010CEFD94AF0080A45464AEAD9
:108E9000065A2E2B00F00F816C2B3FD0702B47D041
:108EA0000CD8642B00F0078300F23581252B00F0ED
:108EB000A984632B00F0FE810132AAE7752B00F034
:108EC0002282782B00F0D483732BF5D11AF0200F77
:108ED00014BF00230123CAF3073ABAF1000F0CBFF5
:108EE0001E4643F001060BF1040CDBF8008096B13E
:108EF00098F800607EB1013015B107F8016B013DB3
:108F0000BAF1010A0CBF1E4643F001061EB118F863
:108F1000016F002EEFD1E34601327AE712F8013FEC
:108F20006C2B0CBF04260226702B4AEA060AB7D126
:108F3000DBF800604AF400030BF1040B43F0010A74
:108F4000CDF808B009F10B0C002E40F0C881302696
:108F50008DF8276009F10A031AF0010F4FD009F1CB
:108F60000B0B4FEA1A5CC3EB0B06B44547D94B45D4
:108F700045D96FEA0B0803EB080606EB0C0818F05E
:108F800003081E46CDF804801DD0302603F8016981
:108F9000C3EB0B08E0451E4631D24B452FD9DDF817
:108FA0000480B8F1010F0ED0B8F1020F05D03026C1
:108FB00003F801694B451E4621D9302306F80139D3
:108FC0004E4533461BD933464FF0300803F801892C
:108FD000C3EB0B08E04512D24B4510D94FF03008D7
:108FE00003F801894B450AD983F80080F31E4B45ED
:108FF00005D906F8038C043E4E453346E3D81AF0F3
:10900000100F40F0118403F101080AAE464540F20A
:109010002D846FEA030B09F10B0C0CEB0B0A0AF021
:10902000030A93F801B04646002D40F012846645CD
:1090300038D0BAF1000F17D0BAF1010F0FD0BAF142
:10904000020F06D098F80180013615B107F8018BA0
:10905000013D16F8018F15B107F8018B013D16F897
:10906000018FD5B966451DD016F8018F15B107F8E7
:10907000018B013DB04618F801AF15B107F801ABFF
:10908000013D98F801A006F1020815B107F801ABFF
:10909000013D98F80180033615B107F8018B013DB9
:1090A0006645E1D10DF1290840440233C01ADDF8CC
:1090B00008B00132ADE6537802F1010CA3F130069D
:1090C000F6B2092E17D802F1020C0026A84606EBCC
:1090D000860603EB46069CF800306246A3F1300C8E
:1090E0005FFA8CF5303E092D02F1010CEFD94546AF
:1090F0004AEA063A0BE02A2B01BFDBF800300CF1FC
:1091000001024AEA033A0BF1040B18BF62461378D6
:109110004AF0200AC0E66F2B7FF4CEAEDBF8006089
:109120000BF1040CCDF808C009F10B0C002E40F037
:10913000AD8030238DF8273009F10A031AF0010FB2
:109140004ED009F10B0C4FEA1A5BC3EB0C06B3458A
:1091500046D94B4544D96FEA0C0803EB080606EBE9
:109160000B0818F003081E46CDF804801DD03026E9
:1091700003F80169C3EB0C08D8451E4630D24B45B5
:109180002ED9DDF80480B8F1010F0ED0B8F1020F2E
:1091900005D0302603F801694B451E4620D93023FF
:1091A00006F801394E4533461AD9A84630253346CC
:1091B00003F80159C3EB0C055D4510D24B450ED9A0
:1091C000302503F801594B4509D91D70F31E4B4555
:1091D00005D906F8035C043E4E453346E6D84546BD
:1091E0001AF0100F40F0188303F101080AAE46454B
:1091F00040F23C836FEA030B09F10B0C0CEB0B0AFA
:109200000AF0030A93F801B04646002D40F0268389
:1092100066453FF447AFBAF1000F18D0BAF1010F1D
:109220000FD0BAF1020F06D098F80180013615B1BF
:1092300007F8018B013D16F8018F15B107F8018B76
:10924000013D16F8018FDDB966453FF42BAF16F8E6
:10925000018F15B107F8018B013DB04618F801AF39
:1092600015B107F801AB013D98F801A006F102081D
:1092700015B107F801AB013D98F80180033615B12F
:1092800007F8018B013D6645E1D10BE706F0070BBE
:1092900011F80B80F6080CF8018963463FF44EAFD5
:1092A00006F0070B11F80B80F6080CF801896346ED
:1092B000ECD143E70BF10403DBF8006001309B467F
:1092C000002D3FF4F9AD07F8016B013D9B460132DB
:1092D0009FE5039B049A991801F8015CACE506F040
:1092E0000F0B11F80B8036090CF8018963463FF427
:1092F00033AE06F00F0B11F80B8036090CF801891C
:109300006346ECD128E6DBF800600BF1040CCDF8E5
:1093100008C009F10B0C002E40F0AD8030238DF811
:10932000273009F10A031AF0010F4ED009F10B0B97
:109330004FEA1A5CC3EB0B08E04546D24B4544D9D3
:109340006FEA0B0803EB080606EB0C0818F003089D
:109350001E46CDF804801DD0302603F80169C3EB0A
:109360000B08E0451E4630D24B452ED9DDF804806F
:10937000B8F1010F0ED0B8F1020F05D0302603F876
:1093800001694B451E4620D9302306F801394E4568
:1093900033461AD9A8463025334603F80159C3EBA2
:1093A0000B05654510D24B450ED9302503F8015900
:1093B0004B4509D91D70F31E4B4505D906F8035CD2
:1093C000043E4E453346E6D845461AF0100F40F0AD
:1093D000278203F101080AAE464540F247826FEA50
:1093E000030B09F10B0C0CEB0B0A0AF0030A93F8C0
:1093F00001B04646002D40F0358266453FF452AE3E
:10940000BAF1000F18D0BAF1010F0FD0BAF1020F64
:1094100006D098F80180013615B107F8018B013D9F
:1094200016F8018F15B107F8018B013D16F8018F71
:10943000DDB966453FF436AE16F8018F15B107F871
:10944000018B013DB04618F801AF15B107F801AB2B
:10945000013D98F801A006F1020815B107F801AB2B
:10946000013D98F80180033615B107F8018B013DE5
:109470006645E1D116E6A4FB0683DB0803EB830B0C
:10948000A6EB4B0611F806801E460CF801896346D0
:10949000002E3FF448AFA4FB0683DB0803EB830BED
:1094A000A6EB4B0611F806801E460CF801896346B0
:1094B000002EE0D137E7DBF800600BF1040C002E42
:1094C000BCBF4AF0100A7642CDF808C009F10B0C77
:1094D000002E40F0AD8030238DF8273009F10A03CB
:1094E0001AF0010F4ED009F10B0C4FEA1A5BC3EBD7
:1094F0000C08C34546D94B4544D96FEA0C0803EB29
:10950000080606EB0B0818F003081E46CDF8048089
:109510001DD0302603F80169C3EB0C08D8451E4660
:1095200030D24B452ED9DDF80480B8F1010F0ED0B2
:10953000B8F1020F05D0302603F801694B451E46ED
:1095400020D9302306F801394E4533461AD9A846AA
:109550003025334603F80159C3EB0C055D4510D2A5
:109560004B450ED9302503F801594B4509D91D70DB
:10957000F31E4B4505D906F8035C043E4E453346C1
:10958000E6D845461AF0100F40F0578103F1010864
:109590000AAE464540F26A816FEA030B09F10B0CF3
:1095A0000CEB0B0A0AF0030A93F801B04646002DB3
:1095B00040F0478166453FF475ADBAF1000F18D011
:1095C000BAF1010F0FD0BAF1020F06D098F801805E
:1095D000013615B107F8018B013D16F8018F15B161
:1095E00007F8018B013D16F8018FDDB966453FF4A0
:1095F00059AD16F8018F15B107F8018B013DB04642
:1096000018F801AF15B107F801AB013D98F801A0BA
:1096100006F1020815B107F801AB013D98F8018089
:10962000033615B107F8018B013D6645E1D139E5F7
:10963000A4FB0683DB0803EB830BA6EB4B0611F8B8
:1096400006801E460CF801896346002E3FF448AFA1
:10965000A4FB0683DB0803EB830BA6EB4B0611F898
:1096600006801E460CF801896346002EE0D137E7DC
:10967000DBF800600BF1040CCDF808C009F10B0C0D
:10968000002E40F0AB8030238DF8273009F10A031B
:109690001AF0010F4ED009F10B0B4FEA1A5CC3EB25
:1096A0000B06664546D24B4544D96FEA0B0803EBDF
:1096B000080606EB0C0818F003081E46CDF80480D7
:1096C0001DD0302603F80169C3EB0B08E0451E46A8
:1096D00030D24B452ED9DDF80480B8F1010F0ED001
:1096E000B8F1020F05D0302603F801694B451E463C
:1096F00020D9302306F801394E4533461AD9A846F9
:109700003025334603F80159C3EB0B05654510D2EC
:109710004B450ED9302503F801594B4509D91D7029
:10972000F31E4B4505D906F8035C043E4E4533460F
:10973000E6D845461AF0100F7BD103F101080AAEB6
:10974000464540F293806FEA030B09F10B0C0CEBDA
:109750000B0A0AF0030A93F801B04646002D74D1B3
:1097600066453FF49FACBAF1000F18D0BAF1010F73
:109770000FD0BAF1020F06D098F80180013615B16A
:1097800007F8018B013D16F8018F15B107F8018B21
:10979000013D16F8018FDDB966453FF483AC16F83C
:1097A000018F15B107F8018B013DB04618F801AFE4
:1097B00015B107F801AB013D98F801A006F10208C8
:1097C00015B107F801AB013D98F80180033615B1DA
:1097D00007F8018B013D6645E1D163E406F00F0B0C
:1097E00011F80B8036090CF8018963463FF450AF3D
:1097F00006F00F0B11F80B8036090CF8018963464F
:10980000ECD145E70130002D3FF456AB07F8013BA2
:10981000013D0132FFF7FDBA2D2603F80169E3E4AB
:109820002D2603F80169D4E52D2603F80169FFF719
:10983000EABB2D2603F801697FE72D2603F80169AD
:10984000A4E607F801BB013DB4E607F801BB013D02
:1098500086E707F801BB013DFFF7E9BB07F801BB4D
:10986000013DD5E407F801BB013DC6E5DDF808B0D0
:109870000132FFF7CEBA00BF0CB410B582B004AC11
:1098800054F8042B23460194FFF7B0FA02B0BDE868
:10989000104002B0704700BF0EB410B583B005ACE5
:1098A00054F8042B4FF0FF3123460194FFF79EFA42
:1098B00003B0BDE8104003B0704700BF10B40028EB
:1098C00039D00378A3F1200CDCF1000141EB0C024C
:1098D000092B08BF42F001027AB1421C13781046EE
:1098E000A3F1200C0132DCF1000141EB0C04092B47
:1098F00008BF44F00104002CF0D12D2B1A461CD0D7
:109900002B2B08BF10F8012F0124A2F13001CBB29C
:10991000092B17D8002303EB830302EB430310F852
:10992000012F303BA2F130015FFA81FCBCF1090F3D
:10993000F1D904FB03F010BC704710F8012F4FF071
:10994000FF34E2E70020F6E70FB430B597B01AAC69
:1099500054F8045BFBF79AFA4E212A4601A82346E5
:109960001594FFF743FA4E28024618D8431C841C6E
:1099700016A901EB020CCB180A224AF248400D2529
:109980000CF8545CC0F20100112103F8542CFAF7D2
:109990005FFE01A82146FAF75BFEFBF739FC502475
:1099A0004F234E22E4E700BF2DE9F04304464AF27C
:1099B0005C4083B0C0F20100FAF770FEFBF766FA74
:1099C0004AF270402146C0F201004FF46D48FAF7A8
:1099D00065FECEF200084AF27C40D8F82C10C0F2A6
:1099E0000100D8F82820FAF759FE4AF29040D8F83A
:1099F0003410C0F20100D8F83820FAF74FFEE768BB
:109A00004AF2A84021686268A368C0F2010000978A
:109A1000FAF744FE54F8046C4AF2CC4054F8101C97
:109A200054F80C2C54F8083CC0F201000096FAF7E8
:109A300035FEE5694AF2F04021696269A369C0F226
:109A400001000095FAF72AFEFBF788FC47F6FF773E
:109A500020340826C1F20007BC4232D8254655F80A
:109A6000042B4AF21450C0F201003146FAF716FEF8
:109A7000BD4206F1010824D84AF214504146C0F212
:109A80000100626805F10409FAF708FEB94508F11A
:109A9000010116D84AF214506A68C0F2010004F1BC
:109AA0000C05FAF7FBFDF11CBD420AD84AF214502E
:109AB000E268C0F201000436FAF7F0FD1034202EFF
:109AC000CAD1FBF7A5FB00BF2DE9F04304464AF2DB
:109AD000245083B0C0F20100FAF7E0FDFBF7D6F99D
